:100000000C9424010C9443010C9468010C9441015C
:100010000C9441010C9441010C9441010C94410158
:100020000C9441010C9441010C9441010C948D01FC
:100030000C9441010C9441010C9441010C94410138
:100040000C9441010C9441010C9441010C94410128
:100050000C9441010C9441010C9441010C94410118
:100060000C9441010C944101000000000000005F6D
:1000700000000007000700147F147F14242A7F2A41
:10008000122313086462364955225000050300000C
:10009000001C2241000041221C0014083E081408E4
:1000A000083E0808005030000008080808080060F2
:1000B00060000020100804023E5149453E00427F86
:1000C000400042615149462141454B311814127F8D
:1000D0001027454545393C4A494930017109050316
:1000E0003649494936064949291E0036360000007E
:1000F0005636000008142241001414141414004150
:100100002214080201510906324979413E7E11113B
:10011000117E7F494949363E414141227F4141227A
:100120001C7F494949417F090909013E4149497AF2
:100130007F0808087F00417F41002040413F017F48
:10014000081422417F404040407F020C027F7F0420
:1001500008107F3E4141413E7F090909063E415159
:10016000215E7F09192946464949493101017F012C
:10017000013F4040403F1F2040201F3F4038403F4C
:100180006314081463070870080761514945430068
:100190007F41410002040810200041417F00040219
:1001A0000102044040404040000102040020545439
:1001B00054787F48444438384444442038444448C0
:1001C0007F3854545418087E0901020C5252523E92
:1001D0007F0804047800447D40002040443D007FB7
:1001E0001028440000417F40007C041804787C08FB
:1001F00004047838444444387C1414140808141453
:10020000187C7C080404084854545420043F44409B
:10021000203C4040207C1C2040201C3C4030403C86
:1002200044281028440C5050503C4464544C440022
:100230000836410000007F00000041360800100829
:10024000081008000000000011241FBECFEFD8E006
:10025000DEBFCDBF11E0A0E0B1E0E6E8FEE002C005
:1002600005900D92AE38B107D9F723E0AEE8B1E0C2
:1002700001C01D92A03DB207E1F70E9491030C94CA
:1002800041070C9400001F921FB61F9211242F9358
:100290003F938F939F9381E090E020919401309160
:1002A00095012115310511F080E090E090939501C2
:1002B000809394018FE99FE00197F1F700C000005F
:1002C0009F918F913F912F911F901FBE1F90189566
:1002D0002F932FB72F933F938F939F9380919201EA
:1002E000909193012091940130919501822B932B51
:1002F000892B31F481E090E09093930180939201F7
:100300008FE99FE00197F1F700C000009F918F9166
:100310003F912F912FBF2F9118951F921FB61F92BB
:1003200011248F939F938091940190919501813036
:10033000910561F480918E0190918F0101968C332B
:10034000910554F490938F0180938E019F918F912A
:100350001F901FBE1F90189510928F0110928E0152
:1003600080919001909191010196909391018093D9
:100370009001ECCFCF92DF92EF92FF920F931F93F9
:10038000CF93DF937C018B01EA01809191018F93E0
:10039000809190018F938DE1C82E81E0D82EDF925D
:1003A000CF92FF92EF920E94700480918F018F9301
:1003B00080918E018F93DF92CF921F930F930E94B3
:1003C00070048DB79EB70C960FB6F8949EBF0FBE03
:1003D0008DBF80919001909191010A972CF460E279
:1003E00071E0CE010E946504B701CE010E94650450
:1003F00062E271E0CE010E94650480918E019091CD
:100400008F010A972CF460E271E0CE010E9465042E
:10041000B801CE010E94650467E187E00E9477037E
:1004200062E0CE010E94670360E281E40E947703EC
:100430001882DF91CF911F910F91FF90EF90DF9085
:10044000CF900C947C0329986623A9F02B9A27E07F
:1004500030E090E0AC01022E02C0559547950A9419
:10046000E2F740FF0AC02C9A2D9A2D9821503109AD
:1004700088F7299A08952B98EACF2C98F5CF60E059
:100480000C942302CF93DF93219A229A239A249AE1
:10049000259A2A9A299A8FE39CE90197F1F700C0DF
:1004A00000002A989FEF2AE683E091502040804088
:1004B000E1F700C000002A9A299881E20E943F02D9
:1004C00083E10E943F0286E00E943F0282EC0E948C
:1004D0003F0280E20E943F0289E00E943F0280E8E2
:1004E0000E943F0280E40E943F02C8EFD1E061E039
:1004F00080E00E94230221972097C9F788E00E949C
:100500003F028CE0DF91CF910C943F0280E80E9483
:100510003F0280E40E943F021092CE031092CF036C
:10052000E6EDF1E088EF91E0DF019C011D922150A2
:100530003040E1F70895882319F080E20C943F02DF
:1005400084E2FCCF962F969596959695E82FF0E04D
:1005500084E5989FE00DF11D1124EA52FE4F2081A1
:10056000677081E090E0DC0102C0AA0FBB1F6A95B2
:10057000E2F7BD01442319F02A2B208308956095EA
:100580002623FBCF8F929F92AF92BF92CF92DF92A2
:10059000FF920F931F93CF93DF9300D000D00F9261
:1005A000CDB7DEB7E82F162F80320CF44FC0E052E3
:1005B00085E0E802B001112468597F4F45E050E022
:1005C000CE0101960E945C04CE0101966C0195E07B
:1005D000199F5001112487E0189F4001112400E069
:1005E000802F90E08A159B050CF465C08091CE03A6
:1005F0008F5F912F990F990F910F890F8093CE03E1
:10060000843558F08091CF031092CE038F5F97E02E
:10061000199F800D11248093CF038091CF038033E5
:1006200020F01092CE031092CF030F900F900F90F6
:100630000F900F90DF91CF911F910F91FF90DF905E
:10064000CF90BF90AF909F908F900895EE0FFF0BCB
:10065000EA56FE4FC080D180C114D10409F0B7CF53
:1006600045E050E068E670E0ABCFEF0D500F802F13
:10067000612F0E942804D601A80FB11D2C9130E0F3
:100680008F2D0E94280402C0359527958A95E2F7A0
:1006900041E020FF40E06E2F852F0E94A202F394DC
:1006A000E091CF035091CE038F2D90E088159905EE
:1006B000E4F20F5F95CFF12CF3CF80323CF4E82FBA
:1006C000EE0FFF0BEA56FE4F7183608308951F9370
:1006D000CF93DF93162FEC018991811104C0DF9134
:1006E000CF911F910895612F0E94C202F5CF809390
:1006F000CE036093CF030895CF93DF9380E80E94E9
:100700003F0280E40E943F02C6EDD1E061E08991A2
:100710000E94230283E0CE3CD807C1F7DF91CF913E
:100720000895F89410928000E1E8F0E010821092B1
:1007300085001092840080910201909103016091E4
:100740000001709101010E9434046150710970939D
:1007500089006093880080818860808380818560C3
:100760008083EFE6F0E0808182608083559A8AB1D1
:10077000837F8AB98CE08BB9E9E6F0E083E080837F
:1007800080818C6080838DB383608DBB78940E9460
:10079000420268E171E081E00E945D0369E071E07E
:1007A00082E00E945D0364E071E083E00E945D03EB
:1007B00063E171E084E00E945D036EE071E085E03A
:1007C0000E945D0361E084E291E00E94670368E0BB
:1007D00080E00E94770361E083E391E00E94670379
:1007E00060E180E00E94770361E082E491E00E9492
:1007F000670368E180E00E94770361E081E591E0B2
:100800000E94670360E280E00E94770361E080E677
:1008100091E00E94670366E280E00E94770361E056
:100820008FE691E00E94670368E280E00E94770310
:1008300061E08EE791E00E9467030E947C038FE9EC
:100840009FE00197F1F700C0000080E090E008957C
:10085000991B79E004C0991F961708F0961B881F12
:100860007A95C9F78095089597FB072E16F40094A2
:1008700007D077FD09D00E94480407FC05D03EF45C
:10088000909581959F4F0895709561957F4F08953C
:10089000AA1BBB1B51E107C0AA1FBB1FA617B707A6
:1008A00010F0A61BB70B881F991F5A95A9F78095C2
:1008B0009095BC01CD010895FB01DC0102C00590BB
:1008C0000D9241505040D8F70895FB01DC010D9086
:1008D0000020E9F7119701900D920020E1F70895AB
:1008E000AEE0B0E0E6E7F4E00C9418070D891E894D
:1008F00086E08C831A8309838FEF9FE79E838D8325
:10090000AE01475E5F4F6F89788DCE0101960E94E0
:1009100093042F813885020F131FF80110822E9641
:10092000E4E00C943407AFE0B0E0E9E9F4E00C94C3
:100930000A077C013B018A01DC0117961C921E927A
:10094000169713968C9181FFBEC19AE0292EFE0165
:1009500031964F01D70113969C91F30193FD859138
:1009600093FF81913F01882309F444C1853239F412
:1009700093FD859193FF81913F01853229F4B70161
:1009800090E00E947C06E6CFB12C412C512CBFE1B7
:10099000B51538F08B3209F188F4803201F18332D9
:1009A00021F157FC3AC020ED280F2A3040F556FEC1
:1009B0001FC0B29C200D1124B22E06C08D3291F0C2
:1009C000803379F7689450F8F30193FD859193FF94
:1009D00081913F018111DBCF20C0689451F8689468
:1009E00052F8F2CF689453F8EFCF689454F8ECCFF4
:1009F000429C200D1124422E689455F8E5CF8E328A
:100A000029F456FCF7C0689456F8DECF8C3619F4FA
:100A1000689457F8D9CF8836B9F2982F9F7D9554AE
:100A20009330C0F0833681F18337A1F1833509F02B
:100A30005BC0D801CD90DD908D016B2D70E056FC30
:100A400002C06FEF7FEFC6010E9466065C016894EA
:100A500057F80AC00C5F1F4FEFE3E983AA24A39461
:100A6000B12C6401E89457F853FE29C0342CA1142A
:100A7000B10451F5332009F46DCFB70180E290E065
:100A80000E947C063A94F6CFD8018C9189830E5F40
:100A90001F4FE4CFF801C190D1908F016B2D70E012
:100AA00056FC02C06FEF7FEFC6010E9471065C0129
:100AB000D9CFB70180E290E00E947C064A944A14A4
:100AC0001B0409F0B0F7D2CFF60157FC859157FE11
:100AD00081916F01B70190E00E947C0631103A9439
:100AE000B1E0AB1AB108C3CF843619F0893609F0EA
:100AF00071C0F80157FE67C0619171918191919128
:100B00008F01E52DEF76DE2E97FF09C09095809539
:100B1000709561957F4F8F4F9F4F6894D7F82AE06B
:100B200030E0A4010E94AC06C82EC818AC2C5D2C85
:100B3000D6FE0CC0E89450F8CB1440F4D4FE05C0A7
:100B4000D2FC03C05D2D5E7E552EAB2C54FE93C0AF
:100B5000FE01EC0DF11D8081803309F085C0652D0B
:100B6000697E562E752D7870372E53FC93C050FE3B
:100B70008DC0BC2CA41410F4B40CBA1854FE90C050
:100B8000B70180E390E00E947C0652FE07C088E730
:100B900051FC88E590E0B7010E947C06CB1408F474
:100BA0008BC0CA94D12C8FEFC81AD80AC80CD91C94
:100BB000D6018E916D01B70190E00E947C068C14E5
:100BC0009D04B1F757CF61917191072E000C880BEE
:100BD000990B96CFD52CE894D4F82AE0853729F1E3
:100BE000F52DF97FDF2E8037A1F058F48835A1F07C
:100BF0008F36D1F0F701868197812F96E2E10C9430
:100C000026078837B9F7D4FE02C06894D2F820E1ED
:100C10000CC06894D4F8F7CF54FE03C02F2F266081
:100C2000D22E20E132E002C028E030E0F801D7FE09
:100C300015C041915191619171914C875D876E878B
:100C40007F878F01A4016C857D858E859F850E949D
:100C5000AC06C82EC818E894D7F868CF8191919156
:100C6000AC0170E060E0E9CF52FC02C0A3947ACFFF
:100C7000A394A39477CF852D867809F473CFF6CF0C
:100C8000B70180E290E00E947C06A394A414C0F314
:100C9000312C74CF342C3A18A41408F46FCFF8CF49
:100CA000852D867809F47ACF8BE251FE80E257FCDD
:100CB0008DE2B70190E070CFB70180E390E00E9431
:100CC0007C06BA946BCF8FEF9FEF97CFFC01059016
:100CD000615070400110D8F7809590958E0F9F1F3E
:100CE0000895FC016150704001900110D8F7809583
:100CF00090958E0F9F1F08950F931F93CF93DF93AF
:100D0000182F092FEB018B8181FD09C01FEF0FEF19
:100D1000812F902FDF91CF911F910F91089582FF26
:100D200014C02E813F818C819D81281739073CF4A6
:100D3000E881F981CF0101969983888310838E81A0
:100D40009F8101969F838E83E3CFE885F985812F6C
:100D50000995892BA1F3DACFFA01AA27283051F19E
:100D6000203181F1E8946F936E7F6E5F7F4F8F4FDC
:100D70009F4FAF4FB1E03ED0B4E03CD0670F781F3B
:100D8000891F9A1FA11D680F791F8A1F911DA11D20
:100D90006A0F711D811D911DA11D20D009F4689459
:100DA0003F912AE0269F11243019305D3193DEF601
:100DB000CF010895462F4770405D4193B3E00FD0B7
:100DC000C9F7F6CF462F4F70405D4A3318F0495DA2
:100DD00031FD4052419302D0A9F7EACFB4E0A69585
:100DE0009795879577956795BA95C9F700976105A7
:100DF000710508959B01AC010A2E069457954795FD
:100E000037952795BA95C9F7620F731F841F951FF1
:100E1000A01D08952F923F924F925F926F927F9202
:100E20008F929F92AF92BF92CF92DF92EF92FF92FA
:100E30000F931F93CF93DF93CDB7DEB7CA1BDB0BA6
:100E40000FB6F894DEBF0FBECDBF09942A8839884B
:100E500048885F846E847D848C849B84AA84B98452
:100E6000C884DF80EE80FD800C811B81AA81B9815E
:100E7000CE0FD11D0FB6F894DEBF0FBECDBFED0172
:060E80000895F894FFCF75
:100E86006400093D3E3E3E3E3E001C1C1C002A1CE2
:100E96003E1C2A00FF1F0E041C224F2A1C2564003C
:100EA60030003A00020205020502020205020502AE
:100EB6000202000502023202050202323232050344
:100EC60002000532020202023405322031330202E8
:100ED600000202020231020505333120310502000B
:100EE6000202020202050202053120310202002D31
:100EF6002D2D2D2D2D2D2D2D2D2D2D2D2D00013072
:0E0F0600373A333020202030382F31350000AC
:0400000500800194E2
:00000001FF
